{
  "_format": "hh-sol-artifact-1",
  "contractName": "SupplyChain",
  "sourceName": "contracts/SupplyChain.sol",
  "abi": [
    {
      "inputs": [],
      "stateMutability": "nonpayable",
      "type": "constructor"
    },
    {
      "inputs": [
        {
          "internalType": "uint256",
          "name": "",
          "type": "uint256"
        }
      ],
      "name": "DIS",
      "outputs": [
        {
          "internalType": "address",
          "name": "addr",
          "type": "address"
        },
        {
          "internalType": "uint256",
          "name": "id",
          "type": "uint256"
        },
        {
          "internalType": "string",
          "name": "name",
          "type": "string"
        },
        {
          "internalType": "string",
          "name": "place",
          "type": "string"
        }
      ],
      "stateMutability": "view",
      "type": "function"
    },
    {
      "inputs": [
        {
          "internalType": "uint256",
          "name": "_medicineID",
          "type": "uint256"
        }
      ],
      "name": "Distribute",
      "outputs": [],
      "stateMutability": "nonpayable",
      "type": "function"
    },
    {
      "inputs": [
        {
          "internalType": "uint256",
          "name": "",
          "type": "uint256"
        }
      ],
      "name": "MAN",
      "outputs": [
        {
          "internalType": "address",
          "name": "addr",
          "type": "address"
        },
        {
          "internalType": "uint256",
          "name": "id",
          "type": "uint256"
        },
        {
          "internalType": "string",
          "name": "name",
          "type": "string"
        },
        {
          "internalType": "string",
          "name": "place",
          "type": "string"
        }
      ],
      "stateMutability": "view",
      "type": "function"
    },
    {
      "inputs": [
        {
          "internalType": "uint256",
          "name": "_medicineID",
          "type": "uint256"
        }
      ],
      "name": "Manufacturing",
      "outputs": [],
      "stateMutability": "nonpayable",
      "type": "function"
    },
    {
      "inputs": [
        {
          "internalType": "uint256",
          "name": "",
          "type": "uint256"
        }
      ],
      "name": "MedicineStock",
      "outputs": [
        {
          "internalType": "uint256",
          "name": "id",
          "type": "uint256"
        },
        {
          "internalType": "string",
          "name": "name",
          "type": "string"
        },
        {
          "internalType": "string",
          "name": "description",
          "type": "string"
        },
        {
          "internalType": "uint256",
          "name": "RMSid",
          "type": "uint256"
        },
        {
          "internalType": "uint256",
          "name": "MANid",
          "type": "uint256"
        },
        {
          "internalType": "uint256",
          "name": "DISid",
          "type": "uint256"
        },
        {
          "internalType": "uint256",
          "name": "RETid",
          "type": "uint256"
        },
        {
          "internalType": "enum SupplyChain.STAGE",
          "name": "stage",
          "type": "uint8"
        }
      ],
      "stateMutability": "view",
      "type": "function"
    },
    {
      "inputs": [],
      "name": "Owner",
      "outputs": [
        {
          "internalType": "address",
          "name": "",
          "type": "address"
        }
      ],
      "stateMutability": "view",
      "type": "function"
    },
    {
      "inputs": [
        {
          "internalType": "uint256",
          "name": "",
          "type": "uint256"
        }
      ],
      "name": "RET",
      "outputs": [
        {
          "internalType": "address",
          "name": "addr",
          "type": "address"
        },
        {
          "internalType": "uint256",
          "name": "id",
          "type": "uint256"
        },
        {
          "internalType": "string",
          "name": "name",
          "type": "string"
        },
        {
          "internalType": "string",
          "name": "place",
          "type": "string"
        }
      ],
      "stateMutability": "view",
      "type": "function"
    },
    {
      "inputs": [
        {
          "internalType": "uint256",
          "name": "",
          "type": "uint256"
        }
      ],
      "name": "RMS",
      "outputs": [
        {
          "internalType": "address",
          "name": "addr",
          "type": "address"
        },
        {
          "internalType": "uint256",
          "name": "id",
          "type": "uint256"
        },
        {
          "internalType": "string",
          "name": "name",
          "type": "string"
        },
        {
          "internalType": "string",
          "name": "place",
          "type": "string"
        }
      ],
      "stateMutability": "view",
      "type": "function"
    },
    {
      "inputs": [
        {
          "internalType": "uint256",
          "name": "_medicineID",
          "type": "uint256"
        }
      ],
      "name": "RMSsupply",
      "outputs": [],
      "stateMutability": "nonpayable",
      "type": "function"
    },
    {
      "inputs": [
        {
          "internalType": "uint256",
          "name": "_medicineID",
          "type": "uint256"
        }
      ],
      "name": "Retail",
      "outputs": [],
      "stateMutability": "nonpayable",
      "type": "function"
    },
    {
      "inputs": [
        {
          "internalType": "address",
          "name": "_address",
          "type": "address"
        },
        {
          "internalType": "string",
          "name": "_name",
          "type": "string"
        },
        {
          "internalType": "string",
          "name": "_place",
          "type": "string"
        }
      ],
      "name": "addDistributor",
      "outputs": [],
      "stateMutability": "nonpayable",
      "type": "function"
    },
    {
      "inputs": [
        {
          "internalType": "address",
          "name": "_address",
          "type": "address"
        },
        {
          "internalType": "string",
          "name": "_name",
          "type": "string"
        },
        {
          "internalType": "string",
          "name": "_place",
          "type": "string"
        }
      ],
      "name": "addManufacturer",
      "outputs": [],
      "stateMutability": "nonpayable",
      "type": "function"
    },
    {
      "inputs": [
        {
          "internalType": "string",
          "name": "_name",
          "type": "string"
        },
        {
          "internalType": "string",
          "name": "_description",
          "type": "string"
        }
      ],
      "name": "addMedicine",
      "outputs": [],
      "stateMutability": "nonpayable",
      "type": "function"
    },
    {
      "inputs": [
        {
          "internalType": "address",
          "name": "_address",
          "type": "address"
        },
        {
          "internalType": "string",
          "name": "_name",
          "type": "string"
        },
        {
          "internalType": "string",
          "name": "_place",
          "type": "string"
        }
      ],
      "name": "addRMS",
      "outputs": [],
      "stateMutability": "nonpayable",
      "type": "function"
    },
    {
      "inputs": [
        {
          "internalType": "address",
          "name": "_address",
          "type": "address"
        },
        {
          "internalType": "string",
          "name": "_name",
          "type": "string"
        },
        {
          "internalType": "string",
          "name": "_place",
          "type": "string"
        }
      ],
      "name": "addRetailer",
      "outputs": [],
      "stateMutability": "nonpayable",
      "type": "function"
    },
    {
      "inputs": [],
      "name": "disCtr",
      "outputs": [
        {
          "internalType": "uint256",
          "name": "",
          "type": "uint256"
        }
      ],
      "stateMutability": "view",
      "type": "function"
    },
    {
      "inputs": [],
      "name": "manCtr",
      "outputs": [
        {
          "internalType": "uint256",
          "name": "",
          "type": "uint256"
        }
      ],
      "stateMutability": "view",
      "type": "function"
    },
    {
      "inputs": [],
      "name": "medicineCtr",
      "outputs": [
        {
          "internalType": "uint256",
          "name": "",
          "type": "uint256"
        }
      ],
      "stateMutability": "view",
      "type": "function"
    },
    {
      "inputs": [],
      "name": "retCtr",
      "outputs": [
        {
          "internalType": "uint256",
          "name": "",
          "type": "uint256"
        }
      ],
      "stateMutability": "view",
      "type": "function"
    },
    {
      "inputs": [],
      "name": "rmsCtr",
      "outputs": [
        {
          "internalType": "uint256",
          "name": "",
          "type": "uint256"
        }
      ],
      "stateMutability": "view",
      "type": "function"
    },
    {
      "inputs": [
        {
          "internalType": "uint256",
          "name": "_medicineID",
          "type": "uint256"
        }
      ],
      "name": "showStage",
      "outputs": [
        {
          "internalType": "string",
          "name": "",
          "type": "string"
        }
      ],
      "stateMutability": "view",
      "type": "function"
    },
    {
      "inputs": [
        {
          "internalType": "uint256",
          "name": "_medicineID",
          "type": "uint256"
        }
      ],
      "name": "sold",
      "outputs": [],
      "stateMutability": "nonpayable",
      "type": "function"
    },
    {
      "inputs": [
        {
          "internalType": "address",
          "name": "newOwner",
          "type": "address"
        }
      ],
      "name": "transferOwnership",
      "outputs": [],
      "stateMutability": "nonpayable",
      "type": "function"
    }
  ],
  "bytecode": "0x60806040526000600155600060025560006003556000600455600060055534801561002957600080fd5b50600080546001600160a01b031916331790556115f28061004b6000396000f3fe608060405234801561001057600080fd5b506004361061014d5760003560e01c806386c18275116100c3578063cc4030691161007c578063cc403069146102ae578063dd286398146102c1578063e101a2e0146102ca578063eb1a06b5146102ea578063eef5cb4014610311578063f2fde38b1461032457600080fd5b806386c182751461022e5780638f4183cc146102415780639c03facb14610254578063a48d335a14610267578063a95f29d91461027a578063b4a99a4e1461028357600080fd5b8063438e9c4d11610115578063438e9c4d146101d05780634def474a146101d957806359bf286f146101ec5780636a992c9f146101ff5780637e43d94d14610212578063857ddb041461021b57600080fd5b80632a4af440146101525780632b0187ac146101675780632b70b08d146101935780632bdb2e6b146101a65780633d753a1c146101bd575b600080fd5b610165610160366004611210565b610337565b005b61017a610175366004611284565b6103ee565b60405161018a94939291906112e3565b60405180910390f35b6101656101a1366004611210565b610531565b6101af60045481565b60405190815260200161018a565b6101656101cb366004611284565b6105cc565b6101af60035481565b6101656101e7366004611284565b610664565b61017a6101fa366004611284565b6106f5565b61016561020d366004611210565b610727565b6101af60055481565b610165610229366004611210565b6107c1565b61016561023c366004611284565b61085b565b61016561024f366004611327565b6108e9565b610165610262366004611284565b610a3e565b610165610275366004611284565b610ae6565b6101af60015481565b600054610296906001600160a01b031681565b6040516001600160a01b03909116815260200161018a565b61017a6102bc366004611284565b610b77565b6101af60025481565b6102dd6102d8366004611284565b610ba9565b60405161018a919061138b565b6102fd6102f8366004611284565b610dde565b60405161018a9897969594939291906113bb565b61017a61031f366004611284565b610f33565b610165610332366004611435565b610f65565b6000546001600160a01b0316331461034e57600080fd5b6004805490600061035e83611450565b9091555050604080516080810182526001600160a01b0385811682526004546020808401828152848601888152606086018890526000938452600990925294909120835181546001600160a01b031916931692909217825592516001820155915190919060028201906103d190826114fc565b50606082015160038201906103e690826114fc565b505050505050565b6009602052600090815260409020805460018201546002830180546001600160a01b0390931693919261042090611477565b80601f016020809104026020016040519081016040528092919081815260200182805461044c90611477565b80156104995780601f1061046e57610100808354040283529160200191610499565b820191906000526020600020905b81548152906001019060200180831161047c57829003601f168201915b5050505050908060030180546104ae90611477565b80601f01602080910402602001604051908101604052809291908181526020018280546104da90611477565b80156105275780601f106104fc57610100808354040283529160200191610527565b820191906000526020600020905b81548152906001019060200180831161050a57829003601f168201915b5050505050905084565b6000546001600160a01b0316331461054857600080fd5b6002805490600061055883611450565b9091555050604080516080810182526001600160a01b038581168252600280546020808501828152858701898152606087018990526000938452600790925295909120845181546001600160a01b031916941693909317835593516001830155925191929091908201906103d190826114fc565b6000811180156105de57506001548111155b6105e757600080fd5b60006105f233610fb1565b90506000811161060157600080fd5b600360008381526006602052604090206007015460ff166005811115610629576106296113a5565b1461063357600080fd5b600082815260066020819052604090912090810182905560070180546004919060ff19166001835b02179055505050565b60008111801561067657506001548111155b61067f57600080fd5b600061068a33611021565b90506000811161069957600080fd5b600260008381526006602052604090206007015460ff1660058111156106c1576106c16113a5565b146106cb57600080fd5b60008281526006602052604090206005810182905560070180546003919060ff191660018361065b565b600a602052600090815260409020805460018201546002830180546001600160a01b0390931693919261042090611477565b6000546001600160a01b0316331461073e57600080fd5b6003805490600061074e83611450565b9091555050604080516080810182526001600160a01b0385811682526003546020808401828152848601888152606086018890526000938452600890925294909120835181546001600160a01b031916931692909217825592516001820155915190919060028201906103d190826114fc565b6000546001600160a01b031633146107d857600080fd5b600580549060006107e883611450565b9091555050604080516080810182526001600160a01b0385811682526005546020808401828152848601888152606086018890526000938452600a90925294909120835181546001600160a01b031916931692909217825592516001820155915190919060028201906103d190826114fc565b60008111801561086d57506001548111155b61087657600080fd5b600061088133611088565b90506000811161089057600080fd5b60008281526006602052604081206007015460ff1660058111156108b6576108b66113a5565b146108c057600080fd5b60008281526006602052604090206003810182905560070180546001919060ff1916828061065b565b6000546001600160a01b0316331461090057600080fd5b600060025411801561091457506000600354115b801561092257506000600454115b801561093057506000600554115b61093957600080fd5b6001805490600061094983611450565b91905055506040518061010001604052806001548152602001838152602001828152602001600081526020016000815260200160008152602001600081526020016000600581111561099d5761099d6113a5565b9052600180546000908152600660209081526040909120835181559083015190918201906109cb90826114fc565b50604082015160028201906109e090826114fc565b50606082015181600301556080820151816004015560a0820151816005015560c0820151816006015560e08201518160070160006101000a81548160ff02191690836005811115610a3357610a336113a5565b021790555050505050565b600081118015610a5057506001548111155b610a5957600080fd5b6000610a6433610fb1565b905060008111610a7357600080fd5b600082815260066020819052604090912001548114610a9157600080fd5b600460008381526006602052604090206007015460ff166005811115610ab957610ab96113a5565b14610ac357600080fd5b600082815260066020526040902060070180546005919060ff191660018361065b565b600081118015610af857506001548111155b610b0157600080fd5b6000610b0c336110ef565b905060008111610b1b57600080fd5b600160008381526006602052604090206007015460ff166005811115610b4357610b436113a5565b14610b4d57600080fd5b60008281526006602052604090206004810182905560070180546002919060ff191660018361065b565b6008602052600090815260409020805460018201546002830180546001600160a01b0390931693919261042090611477565b6060600060015411610bba57600080fd5b60008281526006602052604081206007015460ff166005811115610be057610be06113a5565b03610c1157505060408051808201909152601081526f1359591a58da5b994813dc99195c995960821b602082015290565b600160008381526006602052604090206007015460ff166005811115610c3957610c396113a5565b03610c7757505060408051808201909152601981527f526177204d6174657269616c20537570706c7920537461676500000000000000602082015290565b600260008381526006602052604090206007015460ff166005811115610c9f57610c9f6113a5565b03610cd35750506040805180820190915260138152724d616e75666163747572696e6720537461676560681b602082015290565b600360008381526006602052604090206007015460ff166005811115610cfb57610cfb6113a5565b03610d2e575050604080518082019091526012815271446973747269627574696f6e20537461676560701b602082015290565b600460008381526006602052604090206007015460ff166005811115610d5657610d566113a5565b03610d8357505060408051808201909152600c81526b52657461696c20537461676560a01b602082015290565b600560008381526006602052604090206007015460ff166005811115610dab57610dab6113a5565b03610dd957505060408051808201909152600d81526c1359591a58da5b994814dbdb19609a1b602082015290565b919050565b60066020526000908152604090208054600182018054919291610e0090611477565b80601f0160208091040260200160405190810160405280929190818152602001828054610e2c90611477565b8015610e795780601f10610e4e57610100808354040283529160200191610e79565b820191906000526020600020905b815481529060010190602001808311610e5c57829003601f168201915b505050505090806002018054610e8e90611477565b80601f0160208091040260200160405190810160405280929190818152602001828054610eba90611477565b8015610f075780601f10610edc57610100808354040283529160200191610f07565b820191906000526020600020905b815481529060010190602001808311610eea57829003601f168201915b505050600384015460048501546005860154600687015460079097015495969295919450925060ff1688565b6007602052600090815260409020805460018201546002830180546001600160a01b0390931693919261042090611477565b6000546001600160a01b03163314610f7c57600080fd5b6001600160a01b038116610f8f57600080fd5b600080546001600160a01b0319166001600160a01b0392909216919091179055565b60008060055411610fc157600080fd5b60015b6005548111611018576000818152600a60205260409020546001600160a01b03808516911603611006576000908152600a602052604090206001015492915050565b8061101081611450565b915050610fc4565b50600092915050565b6000806004541161103157600080fd5b60015b6004548111611018576000818152600960205260409020546001600160a01b038085169116036110765760009081526009602052604090206001015492915050565b8061108081611450565b915050611034565b6000806002541161109857600080fd5b60015b6002548111611018576000818152600760205260409020546001600160a01b038085169116036110dd5760009081526007602052604090206001015492915050565b806110e781611450565b91505061109b565b600080600354116110ff57600080fd5b60015b6003548111611018576000818152600860205260409020546001600160a01b038085169116036111445760009081526008602052604090206001015492915050565b8061114e81611450565b915050611102565b80356001600160a01b0381168114610dd957600080fd5b634e487b7160e01b600052604160045260246000fd5b600082601f83011261119457600080fd5b813567ffffffffffffffff808211156111af576111af61116d565b604051601f8301601f19908116603f011681019082821181831017156111d7576111d761116d565b816040528381528660208588010111156111f057600080fd5b836020870160208301376000602085830101528094505050505092915050565b60008060006060848603121561122557600080fd5b61122e84611156565b9250602084013567ffffffffffffffff8082111561124b57600080fd5b61125787838801611183565b9350604086013591508082111561126d57600080fd5b5061127a86828701611183565b9150509250925092565b60006020828403121561129657600080fd5b5035919050565b6000815180845260005b818110156112c3576020818501810151868301820152016112a7565b506000602082860101526020601f19601f83011685010191505092915050565b60018060a01b038516815283602082015260806040820152600061130a608083018561129d565b828103606084015261131c818561129d565b979650505050505050565b6000806040838503121561133a57600080fd5b823567ffffffffffffffff8082111561135257600080fd5b61135e86838701611183565b9350602085013591508082111561137457600080fd5b5061138185828601611183565b9150509250929050565b60208152600061139e602083018461129d565b9392505050565b634e487b7160e01b600052602160045260246000fd5b60006101008a83528060208401526113d58184018b61129d565b905082810360408401526113e9818a61129d565b9150508660608301528560808301528460a08301528360c08301526006831061142257634e487b7160e01b600052602160045260246000fd5b8260e08301529998505050505050505050565b60006020828403121561144757600080fd5b61139e82611156565b60006001820161147057634e487b7160e01b600052601160045260246000fd5b5060010190565b600181811c9082168061148b57607f821691505b6020821081036114ab57634e487b7160e01b600052602260045260246000fd5b50919050565b601f8211156114f757600081815260208120601f850160051c810160208610156114d85750805b601f850160051c820191505b818110156103e6578281556001016114e4565b505050565b815167ffffffffffffffff8111156115165761151661116d565b61152a816115248454611477565b846114b1565b602080601f83116001811461155f57600084156115475750858301515b600019600386901b1c1916600185901b1785556103e6565b600085815260208120601f198616915b8281101561158e5788860151825594840194600190910190840161156f565b50858210156115ac5787850151600019600388901b60f8161c191681555b5050505050600190811b0190555056fea2646970667358221220d0af6c5f6da5a4d13070af017a5ad17954da245afa81787d8c9bb5b19d294fb064736f6c63430008130033",
  "linkReferences": {},
  "deployedLinkReferences": {}
}